:020000040800F2
:100000002005002001010008E5140008E1110008A6
:1000100075130008F102000819170008000000001D
:10002000000000000000000000000000E9140008CB
:10003000F302000800000000E7140008EB140008B9
:100040001B0100081B0100081B0100081B01000820
:100050001B0100081B0100081B0100081B01000810
:100060001B0100081B0100081B0100081B01000800
:100070001B0100081B0100081B0100081B010008F0
:100080001B0100081B0100081B0100081B010008E0
:100090001B0100081B0100081B0100081B010008D0
:1000A0001B0100081B0100081B0100081B010008C0
:1000B0001B0100081B0100081B0100081B010008B0
:1000C0001B0100081B0100081B0100081B010008A0
:1000D0001B0100081B0100081B0100081B01000890
:1000E0001B0100081B0100081B010008DFF80CD0F1
:1000F00000F072F800480047F11B000820050020BE
:100100000648804706480047FEE7FEE7FEE7FEE7B1
:10011000FEE7FEE7FEE7FEE7FEE7FEE767150008FD
:10012000ED000008202A04DB203A21FA02F0002129
:10013000704721FA02F3D040C2F1200291400843F7
:1001400019467047D2B201E000F8012B491EFBD2DC
:1001500070470022F6E710B513460A4604461946D2
:10016000FFF7F0FF204610BD421C10F8011B0029CC
:10017000FBD1801A70472DE9F05F054600209246BA
:100180009B4688460646814640241BE02846414659
:1001900047462246FFF7C6FF53465A46C01A9141CA
:1001A00010D311461846224600F028F82D1A67EBA6
:1001B00001084F4622460120002100F01FF817EBEE
:1001C00000094E41201EA4F10104DFDC48463146FF
:1001D0002A464346BDE8F09F064C074D06E0E0681E
:1001E00040F0010394E8070098471034AC42F6D37E
:1001F000FFF780FF5C1C00087C1C0008202A04DB41
:10020000203A00FA02F1002070479140C2F1200329
:1002100020FA03F3194390407047000070B504467C
:1002200000688168C943C90717D1816821F00101BD
:10023000816000F0F7FA05460AE000BF00F0F2FA2C
:10024000401B022804D920688068C043C00706D03C
:1002500020688068C043C007F0D0002070BDA06A4D
:1002600040F01000A062E06A40F00100E06201206E
:1002700070BD0000F8B5002604460096006881684D
:10028000C943C9072DD0816841F00101816016483A
:1002900016490068B0FBF1F000E0401E0090002815
:1002A000FBD100F0BFFA054616E000BF00F0BAFA35
:1002B000401B022810D920688068C043C0070BD0BB
:1002C000A06A40F01000A062E06A40F00100E06225
:1002D00084F824600120F8BD20688068C043C0070E
:1002E000E4D10020F8BD00000C00002040420F00C7
:1002F000FEE7704772B6FEE7F8B50024009490F868
:1003000024202546012A12D0012280F824204A68A0
:100310001F23072A0DD20668776B521E02EB82025A
:1003200093409F430B6893401F43776319E002207B
:10033000F8BD06680D2A0AD2376BD21F02EB820283
:1003400093409F430B6893401F43376309E0F76A6C
:100350000D3A02EB820293409F430B6893401F4388
:10036000F7620A68072306680A2A0AD3F7680A3A76
:1003700002EB420293409F438B6893401F43F76018
:1003800008E0376902EB420293409F438B68934039
:100390001F4337610A68102A01D0112A20D1124B5D
:1003A00002689A4217D193681B0219D4936843F4E8
:1003B000000393600968102912D10C490C4A09689E
:1003C000B1FBF2F101EB8101490000E0491E00910F
:1003D0000029FBD104E0816A41F0200181620124FF
:1003E00080F824502046F8BD002401400C00002075
:1003F00040420F000068C06C704700002DE9F041DA
:100400004FF0000704003D467ED0A06A002628B9C0
:10041000E66284F82460204600F07EF82046FFF76C
:10042000FDFEA16AC90600D420B1A06A40F0100008
:10043000A06269E0A16A21F4885141F00201A16241
:100440006268E169237B0A4347EA43010A43A168E2
:100450004FF48077B94209D0012907D05FF000013D
:1004600094F814C0BCF1010F02D00AE03946F7E756
:10047000F3B1A36A43F02003A362E36A43F00103EC
:10048000E3622368D3F804C02CF4694C4CEA010CF5
:10049000C3F804C021688B68DFF870C003EA0C035E
:1004A00013438B60A168B9420BD0012909D00CE03D
:1004B000DFF85CC0A3690CEB43330B4343F40061EA
:1004C000DFE7218A0D05A5F580152168CB6A23F4A5
:1004D00070032B43CB62216889680E4B194091420F
:1004E00008D1E662A16A21F0020141F00101A16296
:1004F000BDE8F081A06A20F0020040F01000A06288
:10050000E06A40F00100E0620120F1E7FDF7E1FF61
:1005100000E0FFFFFE0E1FFF00B585B00021009137
:1005200001910291039100680E49884218D10E484A
:10053000816941F400718161816901F40071049164
:10054000816941F0040181618069694600F004001D
:1005500004900120009003200190044800F068F806
:1005600005B000BD00240140001002400008014019
:1005700070B5044690F8240001280DD0012084F8BD
:1005800024002046FFF776FE02004FF0000005D061
:1005900084F82400104670BD022070BDA16A40F2AC
:1005A0000123994341F48071A1621F4D23681F49C3
:1005B000AB4218D10E6816F4702F14D0A66A46F418
:1005C0008016A6620E68760505D5A66A26F4005642
:1005D00046F48056A662A66AF6040AD5E66A26F0B4
:1005E0000606E66206E0A66A26F48016A6625E6843
:1005F000E9E7E06284F824006FF0020018602068E8
:100600008368C3F34243072B05D1A84208D1096888
:1006100011F4702F04D0816841F480118160B9E732
:10062000816841F4A001F9E7002801400424014059
:100630002DE9F84FDFF8B8910024A9F1040B234607
:100640000F2709F1040AABF1040EC9E00125A5400A
:100650002A40AA427DD1674ED1F804C0ACEB06080F
:10066000B44532D014DCBCF1030F3AD009DCBCF144
:10067000000F2AD0BCF1010F1CD0BCF1020F31D108
:100680001DE0BCF1110F17D0BCF1120F2AD119E0F7
:10069000B8F5881F19D006DCB8F5803F15D0B8F53D
:1006A000801F1FD111E0B8F5001F0ED0B8F5041F50
:1006B00018D10AE0CB6815E0CB681B1D12E0CB68AF
:1006C00008330FE0CB680C330CE08B682BB1012BA7
:1006D0004FF0080303D0456104E0042302E0056104
:1006E00000E00023FF2A01D8064601E000F10406DD
:1006F0004FEA840501D9A5F12005D6F8008007FA54
:1007000005FC28EA0C0803FA05F548EA0508C6F8CE
:1007100000804D68ED0062D5374DAE6946F00106A8
:10072000AE61AD6924F0030605F001050095334D77
:1007300006EB050CDCF80850A607360F07FA06F89A
:1007400025EA0805DFF8B880404503D14FF00008DE
:1007500017E044E0DFF8AC80404502D14FF00108DB
:100760000FE0DFF8A480404502D14FF0020808E016
:10077000DFF89880404502D14FF0030801E04FF0C8
:10078000040808FA06F848EA0508CCF808804D681D
:10079000D9F80060ED024D4601D5164300E09643BE
:1007A0002E604D68DAF80060AD02554601D516435B
:1007B00000E096432E604D68DBF80060AD035D46B7
:1007C00001D5164300E096432E604D68DEF80060C8
:1007D000ED03754601D5164300E096432E60641C78
:1007E0000D682A46E5407FF431AFBDE8F88F000080
:1007F00008040140000011100010024000000140F8
:1008000000080140000C01400010014000140140AC
:100810008068084000D0012070470AB1016170472C
:100820000904FBE7014880687047000000000020D1
:1008300002488168027811448160704700000020FE
:10084000074810B5016841F010010160032000F075
:1008500067F80F2000F006F800F024F8002010BD23
:100860000020024070B50D4D04464FF47A7128788F
:10087000B1FBF0F00A490968B1FBF0F000F0D4FBDD
:1008800048B9102C07D200222146501E00F028F84B
:1008900000206C6070BD012070BD000000000020D1
:1008A0000C0000200C4808B5816941F0010181610C
:1008B000816901F001010091C16941F08051C1617C
:1008C000C06900F0805000900448416821F0E06168
:1008D00041F08061416008BD00100240000001400D
:1008E000F0B40E4B1B680C46C3F30223C3F107059B
:1008F000042D00D90425191D072901D2002300E089
:10090000DB1E012606FA05F1491E214099409E4052
:10091000761E16403143F0BC00F014BF0CED00E031
:10092000064900F0070208684FF6FF03184040EA46
:100930000220034A10430860704700000CED00E0FD
:100940000000FA052DE9F84305460078354CC0074C
:1009500054D0E0690026C00008D4E06940F080501F
:10096000E061E069012600F0805000902E480168A7
:10097000C90512D40168804641F480710160FFF717
:1009800051FF074605E000BFFFF74CFFC01B64287E
:1009900023D8D8F80000C005F6D5206A10F44070BE
:1009A00021D0A98801F4407181421CD0206A1F49DE
:1009B000012220F440700A6000220A602062C00711
:1009C00011D0FFF72FFF074641F2883808E000BF3B
:1009D000FFF728FFC11B414502D90320BDE8F8837A
:1009E000206A8007F4D5206A696820F440700843C3
:1009F00020621EB1E06920F08050E0612878800715
:100A000005D56068A96820F44040084360602878F4
:100A1000C00605D56068E96820F48000084360607E
:100A20000020DBE70010024000700040400442421A
:100A30002DE9F0470F46050061D0434E306800F0C5
:100A40000700B84209D2306820F007003843306010
:100A5000306800F00700B84251D128683B4C81074C
:100A600012D5400703D5606840F4E06060602878E4
:100A7000000703D5606840F4605060606068A96852
:100A800020F0F000084360602878C00728D068682C
:100A9000012810D02168022810D0890700292EDAF9
:100AA000616821F0030101436160FFF7BBFE8046EE
:100AB00041F288390DE021688903EFE78901EDE70C
:100AC000FFF7B0FEA0EB0801494502D90320BDE8BD
:100AD000F0876068696800F00C00B0EB810FEFD11F
:100AE000306800F00700B8420BD9306820F00700EA
:100AF00038433060306800F00700B84201D0012070
:100B0000E5E72878400705D56068E96820F4E060EB
:100B1000084360602878000706D56068296920F4DA
:100B2000605040EAC100606000F038F86168084A2F
:100B3000C1F30311515CC8400649086006480068CB
:100B4000FFF790FE0020C2E70020024000100240A4
:100B5000421C00080C000020040000200448054945
:100B600000684968044AC1F30221515CC8407047DB
:100B70000C00002000100240521C000804480549E7
:100B800000684968044AC1F3C221515CC8407047FB
:100B90000C00002000100240521C00080E4A516850
:100BA0000E4801F00C03042B11D0082B0FD10C4878
:100BB000C1F38343C903C05C0AD55168084AC1F335
:100BC0004041921E515C054A5043B0FBF1F0704722
:100BD00004494843704700000010024000127A00A8
:100BE000321C000800093D002DE9F84F040070D0C8
:100BF0002078C04DC00749D06868C0F38100012843
:100C000007D06868C0F38100022809D16868C00372
:100C100006D52868800339D560680028E7D035E01C
:100C20006068B0F5803F0BD010B1B0F5A02F11D0A7
:100C3000286820F480302860286820F4802002E0B2
:100C4000286840F480302860606890B1FFF7EAFDC2
:100C500006460AE0286840F480202860F0E700BFDC
:100C6000FFF7E0FD801B642873D828688003F7D560
:100C70000CE0FFF7D7FD064605E000BFFFF7D2FD09
:100C8000801B6428F0D828688003F7D420789A4E17
:100C900080074FF001094FF0000839D5686810F05F
:100CA0000C0F07D06868C0F38100022809D168687A
:100CB000C00306D42868800714D52069012808D10C
:100CC00010E02069B0B1C6F80090FFF7ABFD074611
:100CD00005E00AE1FFF7A6FDC01B0228C4D828687A
:100CE0008007F7D52868616920F0F80040EAC10064
:100CF00028600DE0C6F80080FFF794FD074604E089
:100D0000FFF790FDC01B022823D828688007F7D47E
:100D1000207800072CD57948A169D9B1C0F8009096
:100D2000FFF780FD074604E0FFF77CFDC01B0228AB
:100D30000FD8686A8007F7D571484FF4FA510068F8
:100D4000B0FBF1F0009000BF0098411E0091FAD274
:100D50000EE080E0C0F80080FFF764FD074604E085
:100D6000FFF760FDC01B022875D8686A8007F7D4BA
:100D70002078400760D5E8690027C00008D4E869FA
:100D800040F08050E861E869012700F08050009051
:100D90005C480168C90513D40168834641F4807139
:100DA0000160FFF73FFD824606E000BFFFF73AFD16
:100DB000A0EB0A0064284ED8DBF80000C005F5D58A
:100DC000E06801280AD008B1052813D0286A20F06D
:100DD00001002862286A20F0040002E0286A40F03E
:100DE00001002862E06841F2883B98B1FFF71AFDE4
:100DF00082460BE0286A40F004002862EEE700BF5C
:100E0000FFF710FDA0EB0A0159455AD8286A800760
:100E1000F6D50CE0FFF706FD824605E0FFF702FD80
:100E2000A0EB0A0159454CD8286A8007F6D41FB1B7
:100E3000E86920F08050E861E06988B36968C1F32F
:100E40008101022944D00228C6F8608004D0FFF74F
:100E5000E9FC044638E034E0FFF7E4FC074604E030
:100E6000FFF7E0FCC01B02282BD828688001F7D4CC
:100E7000206AB0F5803F05D16868A16820F4003091
:100E800008436860D4E908010843696821F47411D3
:100E900008436860C6F86090FFF7C4FC044606E0AB
:100EA00025E000BFFFF7BEFC001B022809D8286818
:100EB0008001F7D51BE000BFFFF7B4FC001B022840
:100EC00002D90320BDE8F88F28688001F4D40EE031
:100ED0000128F7D06868226A00F48031914204D179
:100EE000616A00F47010884201D00120EAE7002016
:100EF000E8E7000000100240000042428004424245
:100F00000C0000200070004070B5040009D0606A39
:100F1000002540B125616561A56294F8510040B19A
:100F20000CE0012070BD6068B0F5827FF4D0E5610F
:100F3000F2E784F85050204600F040F8022084F890
:100F400051002068016821F040010160A0882189DA
:100F500000F4827001F404410843A18901F40061A6
:100F60000843217C01F002010843217D01F00101C9
:100F70000843218B01F400710843217F01F03801FF
:100F8000084394F8201001F080010843218D01F4FA
:100F90000051084321680860A069042101EA10405B
:100FA000216848602068C16921F40061C1616565FC
:100FB000012084F85100002070BD000010B586B0FB
:100FC0000021009101910291039100681349884228
:100FD00021D11348816941F480518161816901F413
:100FE00080510491816941F00401816180690D4C57
:100FF00000F004000490A020009069462046FFF70E
:1010000017FB4020009002200190032003906946C6
:101010002046FFF70DFB06B010BD00000030014078
:10102000001002400008014010B5401EB0F1807F62
:1010300001D3012010BD4FF0E02460610F21601743
:1010400000F080FB0020A06107202061002010BD7F
:1010500070B5040004D094F84100002510B106E0FA
:10106000012070BD84F84050204600F023F8242071
:1010700084F841002068C16821F40051C160204615
:1010800000F09AFA2068016921F49041016120681A
:10109000416921F02A0141612068C16841F4005191
:1010A000C1606564202084F8410084F842006563D3
:1010B000002070BD30B585B00024009401940294E6
:1010C000039400681449884224D11448816941F48A
:1010D00080418161816901F480410491816941F01D
:1010E0000401816180690E4D00F0040004904FF40A
:1010F000007000900220019003200390694628466A
:10110000FFF796FA2815CDE90004694628460294AF
:10111000FFF78EFA05B030BD0038014000100240E4
:101120000008014090F84230202B01D00220704787
:1011300021B11AB10023036300F09ABA012070476D
:101140002DE9F843044690F84100984616460D46AE
:10115000202802D00220BDE8F88385B17EB10020AE
:101160006064212084F84100FFF75CFBA68481467F
:10117000E684A0682027B0F5805F02D003E001205C
:10118000E9E7206910B12E4600250EE000260CE0AC
:101190008021204600F087FAA8B9C6B116F8010BE5
:1011A00021684860E08C401EE084E08C4B464FF0A4
:1011B0000002CDF800800028EAD14FF0400120461F
:1011C00000F071FA40B184F841700320C3E735F8AC
:1011D000020BC0F30800E3E784F841700020BAE78F
:1011E000FEE700003EB500241148009401940294EB
:1011F0000E498460016001250573047505614FF493
:1012000060214460C161FFF7F9F808B1FFF772F897
:1012100003200094CDE9015069460548FFF76CF8BA
:10122000002801D0FFF766F83EBD00000024014011
:10123000240000202DE9F04186B000242B480094C2
:10124000019402940394816941F0100181618169E4
:1012500001F010010491816941F0200181618169EF
:1012600001F020010491816941F0040181618169EB
:1012700001F004010491816941F0080181618069F4
:101280001B4F00F008004FF400550490002229463F
:101290003846FFF7C2FADFF85C800022062140469C
:1012A000FFF7BBFA0095022601250396CDE901540C
:1012B00069463846FFF7BCF90620CDE90005CDE9BF
:1012C000024669464046FFF7B3F918208DE8310021
:1012D00069464046FFF7ACF9E0208DE831006946E9
:1012E0000548FFF7A5F906B0BDE8F08100100240FF
:1012F0000010014000080140000C01400E4810B5EC
:101300000C490160002141608160C1604FF40072AE
:101310000161C0E905120162416281620A21C16274
:10132000FFF7F2FD002803D0BDE81040FEF7E2BF52
:1013300010BD000000300140540000200C4810B5E2
:101340000A4901604FF416514160002181600C226E
:10135000C160C0E904128161C161FFF779FE002814
:1013600003D0BDE81040FEF7C5BF10BD00380140F6
:10137000AC000020FEE7000010B50D48FFF7F8F8BC
:1013800001220C490C48FFF7CDFEFFF74BFA094943
:10139000091FC860FA3008610548FFF72BF881B2D1
:1013A000064A002022F81010401C0528FADB10BD68
:1013B0002400002014000020AC000020F4000020D5
:1013C000F0B595B0FFF72EFA314C0646314DE06886
:1013D000301A32280ED33048E660FFF70BF801468A
:1013E000E07825F81010401CC0B2E070052801D349
:1013F0000020E0702069864247D308212748FFF784
:1014000007FA00283ED111A935F8102021F8102044
:10141000401C0528F8DB05220D460021A2F1010E33
:101420000020531A5B1E0DE005EB400C35F81060F0
:10143000BCF80270BE4203D925F81070ACF8026007
:10144000401CC0B28342EFDC491CC9B27145E7DBE6
:10145000BDF84830207838B10093E38810A101A886
:10146000226900F05BF904E015A101A8226900F0EF
:1014700055F901A8FEF778FE82B2322301A9184877
:10148000FFF75EFE2069FA30206115B0F0BD000064
:1014900010000020F400002024000020000801407B
:1014A0005B2575206D735D20543A307825303458B3
:1014B0002C2056616C4144433A25750D0A0000000A
:1014C0005B2575206D735D20543A576169742E2E2B
:1014D0002C2056616C4144433A25750D0A000000EA
:1014E000AC000020FEE770477047FFF7A1B930B5A8
:1014F00093B028216846FEF72CFE14210AA8FEF7B7
:1015000028FE002501200F951095119501041295D4
:101510008DE8230004904FF4E010CDE90810022478
:1015200007946846FFF760FB08B172B6FEE70AA9A8
:101530000F2081E831004FF48060CDE90D050221D4
:101540000AA8FFF775FA08B172B6FEE74FF400403B
:1015500011900F940FA8FFF7F5F9002801D072B68B
:10156000FEE713B030BD704701680C3151E8002F21
:1015700022F4907241E80023002BF5D10168143168
:1015800051E8002F22F0010241E80023002BF5D1A1
:10159000016B012909D101680C3151E8002F22F0BB
:1015A000100241E80023002BF5D1202180F84210E1
:1015B000002101637047000070B5044600680169AE
:1015C000E26821F44051114301612169A068084398
:1015D000616908432168CA6841F20C639A43024377
:1015E000CA6020684169A26921F4407111434161D8
:1015F0001E492068884202D1FFF7C0FA01E0FFF7D8
:10160000ADFA00EBC00101EB0012606864218000BC
:10161000B2FBF0F3B3FBF1F36FF018067343B2FBC8
:10162000F0F5B2FBF0F605EB8305322303EB05156D
:10163000B5FBF1F5B6FBF1F605F0F00505EB061587
:10164000B2FBF0F6B2FBF0F0B0FBF1F06FF0180275
:10165000504306EB800003EB0010B0FBF1F0216873
:1016600000F00F002844886070BD00000038014081
:1016700081628285C28500214164222180F8421066
:10168000016921B10168CA6842F48072CA600168C8
:101690004A6942F001024A610068C16841F02001D4
:1016A000C160002070472DE9F843984617460D4663
:1016B0000446089E24E0701C22D0FFF7B3F8A0EB8C
:1016C0000800B0421AD8CEB12068C168490717D5C2
:1016D000802D15D0402D13D00168C94309070FD4C0
:1016E00001680025406800902046FFF73DFF082074
:1016F000606484F840500120BDE8F8830320FBE7D4
:101700002068006835EA000004D00020B842D2D03A
:101710000020F1E70120F9E7FEE700000FB4084BD5
:1017200010B504A902AA039800F02CF8044602A9F7
:10173000002000F058FA204610BC5DF814FB0000B1
:10174000E71B00080907090E002804DB00F1E02070
:1017500080F80014704700F00F0000F1E02080F8DE
:10176000141D704702E008C8121F08C1002AFAD1F0
:1017700070477047002001E001C1121F002AFBD111
:10178000704700002DE9FF4F8DB00F46054600263B
:1017900006E025280BD0DDE90F1290476D1C761C62
:1017A00028780028F5D111B03046BDE8F08F00242C
:1017B000A246A1460122EC4900E0044315F8013F8E
:1017C000203B02FA03F00842F7D128782A2810D0EB
:1017D0006FF02F022878A0F13001092914D80AEB04
:1017E0008A0102EB410144F0020400EB010A6D1C86
:1017F000F0E701CF5FEA000A03D544F40054CAF1D0
:10180000000A44F002046D1C28782E2817D115F820
:10181000010F44F004042A280ED06FF02F0228781C
:10182000A0F1300109290AD809EB890102EB410135
:1018300000EB01096D1CF2E757F8049B6D1C28783A
:101840006C280FD006DC4C2817D068280DD06A28E9
:1018500014D104E0742810D07A280FD10DE044F49C
:1018600000140AE044F4801401E044F44014697860
:10187000814202D104F580146D1C6D1C2A786E2AF9
:101880001FD00CDC632A31D004DC002A8BD0582A0C
:1018900011D1A3E0642A68D0692A0CD165E0732ACB
:1018A0002ED004DC6F2A73D0702A04D19BE0752AF5
:1018B0006FD0782A6ED01046DDE90F129047761C63
:1018C00050E1C4F30250022806D0032809D00428AE
:1018D00001CF09D0066045E101CFF117C0E90061F1
:1018E00040E101CF06803DE106703BE117F8040BB3
:1018F0008DF8000000208DF80100EB46012003E088
:1019000057F804BB4FF0FF3061074FF0000102D4DD
:101910000DE008F10101884649450FDA8045F8DB02
:101920001BF808100029F4D108E008F101018846ED
:101930008142FADB1BF808100029F6D1DDE90F23FC
:10194000AAEB08008146214600F036F9304400EB4E
:10195000080604E0DDE90F121BF8010B9047B8F10F
:101960000108F7D221464846F7E00A21C4F30253A2
:101970004FF0000B0891022B04D001CFC117032BAD
:1019800009D00AE0FF1D27F00707F7E8020108E089
:1019900032E01FE020E000B2C117042B01D140B2B9
:1019A000C117031E71F1000307DA4FF0000CD0EBF2
:1019B0000C006CEB01012D2302E0230504D52B2341
:1019C0008DF82430012303E0E30701D02023F7E75B
:1019D000984658E00A2110E010210EE010204FF048
:1019E000000B08900CE010214FF0000B44F00404B1
:1019F0004FF00809089103E008214FF0000B08910F
:101A0000C4F30253022B04D001CF0021032B06D0D4
:101A100006E0FF1D27F00707F7E8020103E080B2A8
:101A2000042B00D1C0B24FF0000823072BD5702A39
:101A300007D0DDF820C08CF0100C5CEA0B0C05D050
:101A40000EE040238DF82430012308E050EA010322
:101A500006D030238DF824308DF8252002239846B7
:101A6000DDF820C08CF0080C5CEA0B0C0BD150EABE
:101A7000010301D1630706D530238DF824304FF0E0
:101A80000108A9F10109582A04D038A20B9208AA2A
:101A90000A920BE03AA2F9E75B46089AFEF76BFB65
:101AA0000B9B9B5C0A9A521E0A92137050EA010229
:101AB000F2D10A98ADEB000000F1200B600702D5CF
:101AC00024F4803401E04FF00109D94502DDA9EB8F
:101AD0000B0000E0002000EB0B0141440890AAEB52
:101AE000010AE00306D4DDE90F232146504600F049
:101AF00063F806444FF0000908E009A911F809004D
:101B0000DDE90F12904709F10109761CC145F4DBAC
:101B1000E0030CD5DDE90F232146504600F04CF8D8
:101B2000064404E0DDE90F1230209047761C089946
:101B3000481E08900029F5DC08E00A980A99007808
:101B4000491C0A91DDE90F129047761CBBF1000198
:101B5000ABF1010BF1DC21465046DDE90F2300F02B
:101B600019F806446D1C1BE6092801003031323398
:101B700034353637383961626364656600000000C9
:101B800030313233343536373839414243444546B3
:101B9000000000002DE9F041044600251E461746CE
:101BA000880404D405E039462020B0476D1C641E2B
:101BB000F9D52846BDE8F0812DE9F041044600251D
:101BC0001E469046C80301D5302700E02027880430
:101BD00004D505E041463846B0476D1C641EF9D572
:101BE0002846BDE8F0810A68531C0B6010707047EE
:101BF000FEF726FEFFF77BFCFFF71CFBFFF7F2FA70
:101C0000FFF79CFBFFF77AFBFFF7B6FB0122074CBF
:101C1000550329462046FEF700FE002229462046AD
:101C2000FEF7FBFDFFF7CCFBF7E7000000100140DB
:101C3000010202030405060708090A0B0C0D0E0F2A
:101C4000101000000000000000000102030406075D
:101C50000809000000000102030400007C1C0008C9
:101C6000000000202400000064170008A01C0008E9
:101C700024000020FC04000074170008010000008C
:101C8000100000000000000000127A0000000000B8
:101C90000000000000000000000000000000000044
:04000005080000ED02
:00000001FF
