:020000040800F2
:100000000805002001010008A51F0008D71B0008F3
:10001000691D000885080008B522000800000000DE
:10002000000000000000000000000000A91F000800
:100030008708000800000000A71F0008AB1F000889
:100040001B0100081B0100081B0100081B01000820
:100050001B0100081B0100081B0100081B01000810
:100060001B0100081B0100081B0100081B01000800
:100070001B0100081B0100081B0100081B010008F0
:100080001B0100081B0100081B0100081B010008E0
:100090001B0100081B0100081B0100081B010008D0
:1000A0001B0100081B0100081B0100081B010008C0
:1000B0001B0100081B0100081B0100081B010008B0
:1000C0001B0100081B0100081B0100081B010008A0
:1000D0001B010008A92200081B0100081B010008E1
:1000E0001B0100081B0100081B010008DFF80CD0F1
:1000F00000F0CEFA00480047DD2B0008080500207C
:100100000648804706480047FEE7FEE7FEE7FEE7B1
:10011000FEE7FEE7FEE7FEE7FEE7FEE72720000832
:10012000ED000008202A04DB203A21FA02F0002129
:10013000704721FA02F3D040C2F1200291400843F7
:1001400019467047D2B201E000F8012B491EFBD2DC
:1001500070470022F6E710B513460A4604461946D2
:10016000FFF7F0FF204610BD421C10F8011B0029CC
:10017000FBD1801A704730B480EA010202F00045DA
:1001800030F0004221F0004013D090B1C30DD40DE7
:10019000C2F31601C0F31600E41A41F4000140F462
:1001A00000027D34914201D3641C00E04900002C20
:1001B00002DA30BC002070474FF400000023914267
:1001C00001D3891A034340084FEA4101F7D151B1E5
:1001D000914202D14FF0004105E002D24FF00101FF
:1001E00001E06FF0010103EBC450284430BC00F083
:1001F0005FB896230022114600F063B800F0004279
:1002000030F000400AD0C10D01F56071C0F3160056
:1002100042EA0151C20840071143704700200146DD
:10022000704730B50B46014600202022012409E02A
:1002300021FA02F59D4205D303FA02F5491B04FA9F
:1002400002F52844151EA2F10102F1DC30BD2DE9B2
:10025000F05F0546002092469B468846064681464A
:1002600040241BE02846414647462246FFF75AFFF6
:1002700053465A46C01A914110D311461846224699
:1002800000F018FA2D1A67EB01084F4622460120AC
:10029000002100F00FFA17EB00094E41201EA4F1D7
:1002A0000104DFDC484631462A464346BDE8F09F5C
:1002B0000029A8BF7047401C490008BF20F001007A
:1002C000704710B4B0FA80FC00FA0CF050EA010458
:1002D00004BF10BC704749B1CCF1200421FA04F4EA
:1002E00011FA0CF118BF012121430843A3EB0C01C3
:1002F000CB1D4FEA00614FEA102042BF002010BC26
:10030000704700EBC35010440029A4BF10BC7047D5
:10031000401C490008BF20F0010010BC70472DE9C7
:10032000FE4F804681EA0300C00F0C46009021F08A
:10033000004123F00045B8EB0200A94105D2404638
:10034000214690461C460B46024623F000401043CF
:1003500047D0270DC7F30A00C3F30A510290401A91
:10036000019040286BDAC3F3130040F4801B00981F
:10037000924620B10023D2EB030A63EB0B0B0198EA
:100380005946C0F14002504600F094F906460D4629
:1003900050465946019A00F09CF910EB0800614163
:1003A000002487EA115284EAE7731A4340D0009A86
:1003B00062B3019A012A4FEA075215DC001B61EB78
:1003C00002014FF0004202EA0752CDE90042001C50
:1003D00041F5801132462B4600F09CF903B0BDE890
:1003E000F08F40462146F9E7001B61EB0201001C3B
:1003F00041F5801300185B412018A2F5001747EB68
:10040000030140EAD570B6196D4111E06D084FEA5D
:10041000360645EAC0754FEA0752001B61EB020140
:10042000001C41F5801149084FEA30000019514184
:1004300032462B4603B0BDE8F04F00F05CB900989F
:10044000012240000023D0EB020263EBE07300982E
:1004500021464FEAE074B8EB000061EB0401E9E7E4
:1004600083F000435BE781F0004158E72DE9FE4F40
:1004700081EA030404F0004421F0004100944FF0AD
:10048000000B23F0004350EA01045ED052EA03045B
:100490005BD0C3F30A54C1F30A552C44A4F2F334DD
:1004A0000194A0FB0254C1F3130141F48011C3F382
:1004B000130343F4801301FB024400FB034E840A40
:1004C000970A44EA815447EA8357A4FB07680295D8
:1004D0008D0A05FB07854FEA932C04FB0C54270576
:1004E000029D4FEA065847EA1637B5EB08056EEB52
:1004F000070C870E920E47EA811742EA8312A7FB88
:100500000201B6EB0B0164EB00042B0D43EA0C3344
:100510005E1844EB1C50DA465146E7FB0201C5F376
:1005200013044FEA0B3343EA14534FEA0432019C9D
:1005300043EA0603A4F10C040294009CCDE900B444
:1005400000F0E8F803B0BDE8F08F00200146F9E7BD
:100550002DE9F04D81EA030404F0004B21F0004541
:1005600014464FF0000A23F0004150EA050220D063
:1005700054EA01021DD0C5F30A570246C5F313031E
:10058000C1F31300C1F30A5640F4801543F48013FD
:10059000A7EB0608101BD64608F2FD3873EB0500E2
:1005A00002D308F1010801E092185B41B8F1000F95
:1005B00003DA00200146BDE8F08D00204FF48011E1
:1005C000064684460EE0171B73EB050705D3121B86
:1005D00063EB050306434CEA010C49084FEA30007F
:1005E00092185B4150EA0107EDD152EA030012D0A4
:1005F00082EA040083EA0501084305D0101BAB41E1
:1006000006D20122002306E000224FF0004302E060
:100610006FF0010253101AEB06004CEB085110EB7F
:100620000A0041EB0B01BDE8F04D00F064B8C1F3E6
:100630000A52C1F3130140F2FF3341F480119A4290
:1006400002DA00200146704740F233439A42A2F298
:10065000334202DC5242FFF765BD00F02BB80000C8
:1006600030B5041E71F1000404DB4FF00044404239
:1006700064EB0101141E73F1000405DB1C464FF00E
:100680000043524263EB0403994208BF904230BDDD
:10069000064C074D06E0E06840F0010394E80700CF
:1006A00098471034AC42F6D3FFF724FD282C0008FD
:1006B000482C0008202A04DB203A00FA02F100202E
:1006C00070479140C2F1200320FA03F31943904090
:1006D0007047202A06DBCB17203A41FA02F043EAA2
:1006E000E07306E041FA02F3D040C2F120029140EB
:1006F00008431946704710B5141E73F1000408DA58
:10070000401C41F1000192185B411A4301D120F0D5
:10071000010010BD2DE9F04D92469B4611B1B1FA92
:1007200081F202E0B0FA80F220329046FFF7C2FF79
:1007300004460F4640EA0A0041EA0B0153465A4676
:10074000084313D0114653EA010019D0C8F1400202
:100750005046FFF7E7FC05460E46504659464246CE
:10076000FFF7A8FF084305D0012004E020463946E2
:10077000BDE8F08D0020054346EAE0762C43374380
:100780000A986305E40AA0EB08000022FD0A44EA87
:1007900047540A3002D500200146E9E70105101947
:1007A0006941DDE9084500196941BDE8F04DA2E75E
:1007B00070B5044600688168C943C90717D18168CC
:1007C00021F00101816000F081FB05460AE000BFD5
:1007D00000F07CFB401B022804D920688068C043DD
:1007E000C00706D020688068C043C007F0D0002052
:1007F00070BDA06A40F01000A062E06A40F0010005
:10080000E062012070BD0000F8B5002604460096A5
:1008100000688168C943C9072DD0816841F0010192
:100820008160164816490068B0FBF1F000E0401EF8
:1008300000900028FBD100F049FB054616E000BF00
:1008400000F044FB401B022810D920688068C04398
:10085000C0070BD0A06A40F01000A062E06A40F030
:100860000100E06284F824600120F8BD20688068FF
:10087000C043C007E4D10020F8BD00000C000020F8
:1008800040420F00FEE7704772B6FEE7F8B500245D
:10089000009490F824202546012A12D0012280F8E5
:1008A00024204A681F23072A0DD20668776B521E40
:1008B00002EB820293409F430B6893401F43776390
:1008C00019E00220F8BD06680D2A0AD2376BD21F44
:1008D00002EB820293409F430B6893401F433763B0
:1008E00009E0F76A0D3A02EB820293409F430B68DE
:1008F00093401F43F7620A68072306680A2A0AD34F
:10090000F7680A3A02EB420293409F438B68934098
:100910001F43F76008E0376902EB420293409F43B0
:100920008B6893401F4337610A68102A01D0112A4F
:1009300020D1124B02689A4217D193681B0219D436
:10094000936843F4000393600968102912D10C499D
:100950000C4A0968B1FBF2F101EB8101490000E0AA
:10096000491E00910029FBD104E0816A41F0200179
:100970008162012480F824502046F8BD0024014003
:100980000C00002040420F000068C06C704700005F
:100990002DE9F0414FF0000704003D467ED0A06AEB
:1009A000002628B9E66284F82460204600F07EF82C
:1009B0002046FFF7FDFEA16AC90600D420B1A06A57
:1009C00040F01000A06269E0A16A21F4885141F072
:1009D0000201A1626268E169237B0A4347EA43019D
:1009E0000A43A1684FF48077B94209D0012907D0A2
:1009F0005FF0000194F814C0BCF1010F02D00AE0CE
:100A00003946F7E7F3B1A36A43F02003A362E36A30
:100A100043F00103E3622368D3F804C02CF4694C6B
:100A20004CEA010CC3F804C021688B68DFF870C081
:100A300003EA0C0313438B60A168B9420BD0012970
:100A400009D00CE0DFF85CC0A3690CEB43330B4327
:100A500043F40061DFE7218A0D05A5F580152168C3
:100A6000CB6A23F470032B43CB62216889680E4B59
:100A70001940914208D1E662A16A21F0020141F0D9
:100A80000101A162BDE8F081A06A20F0020040F0FF
:100A90001000A062E06A40F00100E0620120F1E78E
:100AA000FDF7E1FF00E0FFFFFE0E1FFF00B585B080
:100AB0000021009101910291039100680E49884242
:100AC00018D10E48816941F400718161816901F496
:100AD00000710491816941F0040181618069694676
:100AE00000F00400049001200090032001900448CD
:100AF00000F0EAF805B000BD0024014000100240FB
:100B00000008014070B5044690F8240001280DD07B
:100B1000012084F824002046FFF776FE02004FF003
:100B2000000005D084F82400104670BD022070BD7E
:100B3000A16A40F20123994341F48071A1621F4DE3
:100B400023681F49AB4218D10E6816F4702F14D0D9
:100B5000A66A46F48016A6620E68760505D5A66AD2
:100B600026F4005646F48056A662A66AF6040AD514
:100B7000E66A26F00606E66206E0A66A26F4801615
:100B8000A6625E68E9E7E06284F824006FF0020084
:100B9000186020688368C3F34243072B05D1A8423D
:100BA00008D1096811F4702F04D0816841F48011D4
:100BB0008160B9E7816841F4A001F9E700280140AC
:100BC0000424014010B590F821100022022905D01C
:100BD0000421816380F82020012010BD01680B688A
:100BE00023F00E030B6001680B6823F001030B6018
:100BF00090F84030C46B012101FA03F3636080F880
:100C0000211080F82020104610BD000010B590F88B
:100C100021100024022903D00421816301243DE036
:100C200001680A6822F00E020A6001680A6822F070
:100C300001020A601A4A0168914201D1012121E0B2
:100C4000174A1432914201D110211BE0144A283274
:100C5000914201D1891515E0114A3C32914201D1EE
:100C600089140FE00E4A5032914202D14FF4803184
:100C700008E00B4A6432914202D14FF4801101E046
:100C80004FF08071064A083A5160012180F8211026
:100C9000002180F82010416B01B18847204610BD2B
:100CA0000800024070B5044600F010F90546601CCB
:100CB00002D004480078044400F008F9401BA04228
:100CC000FAD370BD000000202DE9F84FDFF8B8918D
:100CD0000024A9F1040B23460F2709F1040AABF104
:100CE000040EC9E00125A5402A40AA427DD1674EE5
:100CF000D1F804C0ACEB0608B44532D014DCBCF12A
:100D0000030F3AD009DCBCF1000F2AD0BCF1010F6F
:100D10001CD0BCF1020F31D11DE0BCF1110F17D076
:100D2000BCF1120F2AD119E0B8F5881F19D006DCE2
:100D3000B8F5803F15D0B8F5801F1FD111E0B8F588
:100D4000001F0ED0B8F5041F18D10AE0CB6815E0DB
:100D5000CB681B1D12E0CB6808330FE0CB680C3367
:100D60000CE08B682BB1012B4FF0080303D04561D9
:100D700004E0042302E0056100E00023FF2A01D81B
:100D8000064601E000F104064FEA840501D9A5F109
:100D90002005D6F8008007FA05FC28EA0C0803FABB
:100DA00005F548EA0508C6F800804D68ED0062D5F3
:100DB000374DAE6946F00106AE61AD6924F0030619
:100DC00005F001050095334D06EB050CDCF80850E5
:100DD000A607360F07FA06F825EA0805DFF8B880F7
:100DE000404503D14FF0000817E044E0DFF8AC8045
:100DF000404502D14FF001080FE0DFF8A4804045E4
:100E000002D14FF0020808E0DFF89880404502D197
:100E10004FF0030801E04FF0040808FA06F848EA2A
:100E20000508CCF808804D68D9F80060ED024D4601
:100E300001D5164300E096432E604D68DAF8006055
:100E4000AD02554601D5164300E096432E604D682D
:100E5000DBF80060AD035D4601D5164300E0964324
:100E60002E604D68DEF80060ED03754601D516432F
:100E700000E096432E60641C0D682A46E5407FF42E
:100E800031AFBDE8F88F00000804014000001110E8
:100E9000001002400000014000080140000C014029
:100EA00000100140001401408068084000D001207B
:100EB0007047C26821EA02030A4043EA0241016125
:100EC00070470AB1016170470904FBE70148806877
:100ED0007047000000000020024881680278114439
:100EE0008160704700000020074810B5016841F09C
:100EF00010010160032000F075F80F2000F006F8E3
:100F000000F024F8002010BD0020024070B50D4D07
:100F100004464FF47A712878B1FBF0F00A49096869
:100F2000B1FBF0F000F0E2FB48B9102C07D2002230
:100F30002146501E00F036F800206C6070BD012084
:100F400070BD0000000000200C0000200C4808B517
:100F5000816941F001018161816901F00101009124
:100F6000C16941F08051C161C06900F080500090BA
:100F70000448416821F0E06141F08061416008BDB2
:100F80000010024000000140002809DB00F01F02B1
:100F9000012191404009800000F1E020C0F80011DB
:100FA00070470000F0B40E4B1B680C46C3F30223DD
:100FB000C3F10705042D00D90425191D072901D205
:100FC000002300E0DB1E012606FA05F1491E214040
:100FD00099409E40761E16403143F0BC01F080B926
:100FE0000CED00E0064900F0070208684FF6FF0329
:100FF000184040EA0220034A10430860704700008E
:101000000CED00E00000FA052DE9F84305460078F4
:10101000354CC00754D0E0690026C00008D4E06910
:1010200040F08050E061E069012600F080500090BF
:101030002E480168C90512D40168804641F48071C8
:101040000160FFF743FF074605E000BFFFF73EFFE3
:10105000C01B642823D8D8F80000C005F6D5206A44
:1010600010F4407021D0A98801F4407181421CD055
:10107000206A1F49012220F440700A6000220A60A1
:101080002062C00711D0FFF721FF074641F28838E0
:1010900008E000BFFFF71AFFC11B414502D903203A
:1010A000BDE8F883206A8007F4D5206A696820F4D7
:1010B0004070084320621EB1E06920F08050E0617A
:1010C0002878800705D56068A96820F44040084367
:1010D00060602878C00605D56068E96820F4800063
:1010E000084360600020DBE7001002400070004011
:1010F000400442422DE9F0470F46050061D0434EBF
:10110000306800F00700B84209D2306820F00700CC
:1011100038433060306800F00700B84251D1286889
:101120003B4C810712D5400703D5606840F4E0606E
:1011300060602878000703D5606840F46050606004
:101140006068A96820F0F000084360602878C00754
:1011500028D06868012810D02168022810D089079B
:1011600000292EDA616821F0030101436160FFF775
:10117000ADFE804641F288390DE021688903EFE732
:101180008901EDE7FFF7A2FEA0EB0801494502D96E
:101190000320BDE8F0876068696800F00C00B0EBE0
:1011A000810FEFD1306800F00700B8420BD93068EA
:1011B00020F0070038433060306800F00700B84284
:1011C00001D00120E5E72878400705D56068E96887
:1011D00020F4E060084360602878000706D5606866
:1011E000296920F4605040EAC100606000F038F8DE
:1011F0006168084AC1F30311515CC84006490860A0
:1012000006480068FFF782FE0020C2E70020024087
:1012100000100240102C00080C00002004000020E8
:101220000448054900684968044AC1F30221515C39
:10123000C84070470C00002000100240202C00081D
:101240000448054900684968044AC1F3C221515C59
:10125000C84070470C00002000100240202C0008FD
:101260000E4A51680E4801F00C03042B11D0082BD4
:101270000FD10C48C1F38343C903C05C0AD5516840
:10128000084AC1F34041921E515C054A5043B0FBED
:10129000F1F07047044948437047000000100240D5
:1012A00000127A00002C000800093D002DE9F84FDB
:1012B000040070D02078C04DC00749D06868C0F3E2
:1012C0008100012807D06868C0F38100022809D195
:1012D0006868C00306D52868800339D5606800288F
:1012E000E7D035E06068B0F5803F0BD010B1B0F5C5
:1012F000A02F11D0286820F480302860286820F4BE
:10130000802002E0286840F480302860606890B156
:10131000FFF7DCFD06460AE0286840F480202860DC
:10132000F0E700BFFFF7D2FD801B642873D8286860
:101330008003F7D50CE0FFF7C9FD064605E000BFC6
:10134000FFF7C4FD801B6428F0D828688003F7D419
:1013500020789A4E80074FF001094FF0000839D5E8
:10136000686810F00C0F07D06868C0F3810002288D
:1013700009D16868C00306D42868800714D520699D
:10138000012808D110E02069B0B1C6F80090FFF73D
:101390009DFD074605E00AE1FFF798FDC01B022806
:1013A000C4D828688007F7D52868616920F0F8005C
:1013B00040EAC10028600DE0C6F80080FFF786FD16
:1013C000074604E0FFF782FDC01B022823D82868E7
:1013D0008007F7D4207800072CD57948A169D9B1C6
:1013E000C0F80090FFF772FD074604E0FFF76EFDBE
:1013F000C01B02280FD8686A8007F7D571484FF4E0
:10140000FA510068B0FBF1F0009000BF0098411E57
:101410000091FAD20EE080E0C0F80080FFF756FDA0
:10142000074604E0FFF752FDC01B022875D8686A22
:101430008007F7D42078400760D5E8690027C0000E
:1014400008D4E86940F08050E861E869012700F0BD
:10145000805000905C480168C90513D40168834638
:1014600041F480710160FFF731FD824606E000BF64
:10147000FFF72CFDA0EB0A0064284ED8DBF8000033
:10148000C005F5D5E06801280AD008B1052813D0B9
:10149000286A20F001002862286A20F0040002E097
:1014A000286A40F001002862E06841F2883B98B168
:1014B000FFF70CFD82460BE0286A40F0040028622A
:1014C000EEE700BFFFF702FDA0EB0A0159455AD82D
:1014D000286A8007F6D50CE0FFF7F8FC824605E0A5
:1014E000FFF7F4FCA0EB0A0159454CD8286A8007A5
:1014F000F6D41FB1E86920F08050E861E06988B354
:101500006968C1F38101022944D00228C6F86080CD
:1015100004D0FFF7DBFC044638E034E0FFF7D6FCEC
:10152000074604E0FFF7D2FCC01B02282BD828682E
:101530008001F7D4206AB0F5803F05D16868A168C2
:1015400020F4003008436860D4E908010843696862
:1015500021F4741108436860C6F86090FFF7B6FC88
:10156000044606E025E000BFFFF7B0FC001B0228A0
:1015700009D828688001F7D51BE000BFFFF7A6FC5B
:10158000001B022802D90320BDE8F88F28688001DB
:10159000F4D40EE00128F7D06868226A00F48031A4
:1015A000914204D1616A00F47010884201D0012098
:1015B000EAE70020E8E70000001002400000424295
:1015C000800442420C0000200070004070B504000E
:1015D00009D0606A002540B125616561A56294F873
:1015E000510040B10CE0012070BD6068B0F5827F11
:1015F000F4D0E561F2E784F85050204600F040F85E
:10160000022084F851002068016821F04001016047
:10161000A088218900F4827001F404410843A18963
:1016200001F400610843217C01F002010843217D9F
:1016300001F001010843218B01F400710843217F6F
:1016400001F03801084394F8201001F080010843AC
:10165000218D01F40051084321680860A06904212C
:1016600001EA1040216848602068C16921F40061E6
:10167000C1616565012084F85100002070BD000043
:1016800010B586B00021009101910291039100688C
:101690001349884221D11348816941F48051816105
:1016A000816901F480510491816941F004018161F3
:1016B00080690D4C00F004000490A0200090694661
:1016C0002046FFF701FB40200090022001900320FC
:1016D000039069462046FFF7F7FA06B010BD0000F8
:1016E00000300140001002400008014010B5401ECB
:1016F000B0F1807F01D3012010BD4FF0E024606184
:101700000F21601700F0ECFD0020A0610720206190
:10171000002010BD7047000000680A4982B088426E
:101720000ED101684168009101684168009101682B
:101730004068009001220449044802B000F0B0B9AA
:1017400002B070470038014016000020B0000020B1
:10175000F8B5016804460868CA684B6910F00F0FB5
:101760004FF0000559D003F0010602F4907737439B
:1017700065D0C10705D0D10503D5616C41F00101E9
:101780006164410705D5D90703D0616C41F00201BE
:101790006164810705D5D90703D0616C41F004016C
:1017A0006164010707D502F02001314303D0616C69
:1017B00041F008016164616C00293AD0800604D5CB
:1017C000900602D5204600F05EFC20684069616CFE
:1017D000C0F38010090700D460B3204600F02CFC51
:1017E00020684069400621D52068143050E8001F69
:1017F00021F0400140E80012002AF5D1E06BA8B1C9
:101800006D494163E06BFFF701FA002811D0E06BEE
:10181000416B01B0BDE8F040084783060FD5930641
:101820000DD52046BDE8F84000F02DBC2046FFF75E
:1018300073FFF8BD2046FFF76FFF6564F8BD266BA8
:101840002023012E7CD1C6067AD5D60678D5086825
:101850004868009048694FF00206400640D5E16BA9
:10186000086840680004000CE8D0A28D8242E5D9E7
:10187000E085886920282DD020680C3050E8001FB2
:1018800021F4807140E80012002AF5D1206814305C
:1018900050E8001F21F0010140E80012002AF5D1B4
:1018A0002068143050E8001F21F0400140E8001289
:1018B000002AF5D184F84230256320680C3050E8C6
:1018C000001F21F0100140E80012002AF5D1E06B62
:1018D000FFF778F96663A08DE18D401A81B22AE0A6
:1018E000A08DE18D401A81B2E08D0028A6D000299C
:1018F000A4D022680C3252E8000F20F4907042E825
:101900000007002FF5D12068143050E8002F22F096
:10191000010240E80027002FF5D184F8423025630A
:1019200020680C3050E8002F22F0100240E800231D
:10193000002BF5D166632046FFF7ECFEF8BDFFE70C
:1019400005062BD5150629D594F841002128F5D197
:10195000A068B0F5805F01D12069B0B1206A411C58
:101960002162216800784860E08C401E0004000C71
:10197000E084E3D12068C16821F08001C160206863
:10198000C16841F04001C160D8E7206A0088C0F317
:1019900008004860206A801C2062E5E74006CDD53B
:1019A0005006CBD5CA68204622F04002CA6084F8AF
:1019B000413000F00FF9C1E72920000870B504009C
:1019C00004D094F84100002510B106E0012070BD5C
:1019D00084F84050204600F023F8242084F8410089
:1019E0002068C16821F40051C160204600F0ACFBC2
:1019F0002068016921F4904101612068416921F06A
:101A00002A0141612068C16841F40051C1606564E8
:101A1000202084F8410084F842006563002070BDF6
:101A200030B585B0002400940194029403940068BA
:101A3000184988422CD11848816941F4804181615C
:101A4000816901F480410491816941F0040181615F
:101A50008069124D00F0040004904FF40070009073
:101A6000022001900320039069462846FFF72CF9D5
:101A70002815CDE90004694628460294FFF724F9A9
:101A8000002211462520FFF78DFA2520FFF77CFA6A
:101A900005B030BD00380140001002400008014090
:101AA00090F84230202B01D00220704721B11AB1AA
:101AB0000023036300F0A4BB0120704770B50068E9
:101AC0001849884214D1012217491848FFF7E8FF46
:101AD000154C0026A41F0125607806281FD2DFE8D8
:101AE00000F003080A0D0F13A079FC2800D16570DF
:101AF00070BD022000E00320607070BD0420FBE791
:101B0000A079A0700520F7E7A079A17841EA00202C
:101B1000FEF76FFB0649FEF72EFBA060257066708E
:101B200070BD00000038014016000020B000002009
:101B3000000020412DE9F843044690F84100984602
:101B400016460D46202802D00220BDE8F88385B154
:101B50007EB100206064212084F84100FFF7B6F9CF
:101B6000A6848146E684A0682027B0F5805F02D075
:101B700003E00120E9E7206910B12E4600250EE0C0
:101B800000260CE08021204600F055FBA8B9C6B124
:101B900016F8010B21684860E08C401EE084E08C60
:101BA0004B464FF00002CDF800800028EAD14FF0FC
:101BB0004001204600F03FFB40B184F84170032013
:101BC000C3E735F8020BC0F30800E3E784F841707F
:101BD0000020BAE77047FEE73EB5002411480094A4
:101BE000019402940E498460016001250573047517
:101BF00005614FF460214460C161FEF7C9FE08B180
:101C0000FEF742FE03200094CDE9015069460548E5
:101C1000FEF73CFE002801D0FEF736FE3EBD000078
:101C200000240140280000202DE9F04186B0002466
:101C30002B480094019402940394816941F01001AF
:101C40008161816901F010010491816941F02001F5
:101C50008161816901F020010491816941F00401F1
:101C60008161816901F004010491816941F00801F9
:101C7000816180691B4F00F008004FF4005504900B
:101C8000002229463846FFF71CF9DFF85C80002265
:101C900006214046FFF715F9009502260125039617
:101CA000CDE9015469463846FFF70EF80620CDE924
:101CB0000005CDE9024669464046FFF705F81820C1
:101CC0008DE8310069464046FEF7FEFFE0208DE8D2
:101CD000310069460548FEF7F7FF06B0BDE8F08120
:101CE000001002400010014000080140000C0140BB
:101CF0000E4810B50C490160002141608160C1604F
:101D00004FF400720161C0E9051201624162816213
:101D10000A21C162FFF75AFC002803D0BDE8104039
:101D2000FEF7B2BD10BD0000003001405800002099
:101D30000C4810B50A4901604FF41651416000216A
:101D400081600C22C160C0E904128161C161FFF7AA
:101D500035FE002803D0BDE81040FEF795BD10BD4C
:101D600000380140B0000020FEE7000010B5164822
:101D7000FEF7C8FE012215491548FFF791FEFFF74F
:101D8000A5F8124900F1FA02891FC1E9040243F6DD
:101D900098221044C8600C48FEF7F6FD81B20D4A47
:101DA000002000BF22F81010401C0528FADB0AA40E
:101DB0002046FEF7D9F9214682B2BDE810406423DF
:101DC0000348FFF7B7BE00002800002016000020DF
:101DD000B0000020F80000200D0A5B4F66667365B6
:101DE0007420436F727265637465645D205265612F
:101DF00064696E6720357468202620367468206216
:101E0000797465732E0D0A002DE9F04393B0FFF746
:101E10005DF84A4C0546DFF828912069281A3228D7
:101E20000ED348482561FEF7AFFD0146E07829F85A
:101E30001010401CC0B2E070052801D30020E070F3
:101E4000414F08213846FFF72FF806001DD1607971
:101E500001281AD16420FEF725FF08213846FFF734
:101E600023F890B9207920B10020207118B137A74C
:101E700002E00120F9E738A73846FEF775F982B28B
:101E8000642339463748FFF755FE6671606980461E
:101E9000854244D3207900283ED000204A46694636
:101EA00032F8103021F81030401C0528F8DB0022F1
:101EB000104601E000200AE001EB400731F8103045
:101EC0007E88B34202D921F810607B80401CC2F1A9
:101ED00004038342F0DC521C042AEBDBBDF80460EF
:101EE000207850B1A068FEF789F98DE8430042469A
:101EF0001DA103A800F0E0F905E03346424621A108
:101F000003A800F0D9F903A8FEF72EF982B2322314
:101F100003A91448FFF70EFE6069FA306061E068BB
:101F2000854208D34FF400511D48FEF7C2FF43F627
:101F300098202844E06013B0BDE8F0831000002032
:101F4000F800002028000020000801402D3E20530A
:101F5000544152540D0A00002D3E2053544F500D51
:101F60000A000000B00000205B2575206D735D2025
:101F7000543A252E316620432C204144433A25759E
:101F80000D0A00005B2575206D735D20543A576182
:101F900069742E2E2C204144433A25750D0A000009
:101FA00000100140FEE770477047FEF795BF30B55F
:101FB00093B028216846FEF7CCF814210AA8FEF752
:101FC000C8F8002501200F95109511950104129570
:101FD0008DE8230004904FF4E010CDE908100224AE
:101FE00007946846FFF762F908B172B6FEE70AA9DE
:101FF0000F2081E831004FF48060CDE90D0502210A
:102000000AA8FFF777F808B172B6FEE74FF4004070
:1020100011900F940FA8FEF7F7FF002801D072B6B9
:10202000FEE713B030BD704710B5406A0021C1858E
:10203000C184FFF771FB10BD01680C3151E8002F1E
:1020400022F4907241E80023002BF5D1016814318D
:1020500051E8002F22F0010241E80023002BF5D1C6
:10206000016B012909D101680C3151E8002F22F0E0
:10207000100241E80023002BF5D1202180F8421006
:1020800000210163704708B590F84210222901D061
:10209000022008BD82684FF480539A4201D1016941
:1020A00021B1816A9A421BD04AB10AE00268816A72
:1020B0005268C2F308020A80816A891C08E002693A
:1020C00072B10268526802F07F020A70816A491C8C
:1020D0008162C18D491E0904090CC18503D01BE032
:1020E00002685268F1E70168CA6822F02002CA60FB
:1020F0000168CA6822F48072CA6001684A6922F0E5
:1021000001024A61202180F8421000214163026BE4
:10211000012A03D0FFF7D2FC002008BD016301684B
:102120000C3151E8002F22F0100241E80023002B6F
:10213000F5D101680A68D20602D50A68496800919B
:10214000818DFFF7E7FAE7E770B50446006801699B
:10215000E26821F44051114301612169A0680843FC
:10216000616908432168CA6841F20C639A430243DB
:10217000CA6020684169A26921F44071114341613C
:102180001E492068884202D1FFF75AF801E0FFF7A4
:1021900047F800EBC00101EB001260686421800089
:1021A000B2FBF0F3B3FBF1F36FF018067343B2FB2D
:1021B000F0F5B2FBF0F605EB8305322303EB0515D2
:1021C000B5FBF1F5B6FBF1F605F0F00505EB0615EC
:1021D000B2FBF0F6B2FBF0F0B0FBF1F06FF01802DA
:1021E000504306EB800003EB0010B0FBF1F02168D8
:1021F00000F00F002844886070BD000000380140E6
:1022000081628285C28500214164222180F84210CA
:10221000016921B10168CA6842F48072CA6001682C
:102220004A6942F001024A610068C16841F0200138
:10223000C160002070472DE9F843984617460D46C7
:102240000446089E24E0701C22D0FEF73FFEA0EB5F
:102250000800B0421AD8CEB12068C168490717D526
:10226000802D15D0402D13D00168C94309070FD424
:1022700001680025406800902046FFF7DDFE082039
:10228000606484F840500120BDE8F8830320FBE738
:102290002068006835EA000004D00020B842D2D09F
:1022A0000020F1E70120F9E70148FFF751BA0000EB
:1022B000B0000020FEE700000FB4084B10B504A9E1
:1022C00002AA039800F0EEF8044602A9002000F0EC
:1022D00080FC204610BC5DF814FB0000D32B0008E6
:1022E0000907090E002804DB00F1E02080F8001443
:1022F000704700F00F0000F1E02080F8141D7047D7
:1023000002E008C8121F08C1002AFAD170477047BE
:10231000002001E001C1121F002AFBD1704700001C
:102320002DE9FF5F82B00021DDE90430020DDDF808
:1023300040B0034318D044F61050A2F2FF3242439B
:102340001514119801281FD0A5EB0B00401C5FEA63
:10235000000A4FF000064E4FDFF83891B046504665
:1023600015D5CAF1000413E0119801244AA30128ED
:1023700001D16FEA0B010298119AC0E90031C0E95E
:10238000024206B0BDE8F09FCBF10000DFE7044653
:102390000021404A491842EB0450CDE9001012E0F8
:1023A000E00707D032463B4640464946FEF75EF816
:1023B0008046894632463B4610461946FEF756F897
:1023C00006460F466410002CEAD1DDE90401DDE980
:1023D0000023BAF1000F06DAFEF748F842464B46F2
:1023E000FEF744F805E0FEF7B3F842464B46FEF729
:1023F000AFF804460E460022284BFEF731F903D809
:102400004FF0FF30014607E00022254B20463146C1
:10241000FDF785FFFEF70BF9102409E0002C0ADB1D
:102420000A220023FDF713FF039B30321A55641E66
:1024300050EA0102F2D1641C039AC4F1110314445E
:10244000119A012A03D0012208430DD10AE0084362
:1024500004D000204FF0110B119072E7A3EB0B0595
:102460006D1E0DE05B4504DD4FF0000205F1010536
:1024700004E003DA4FF00002A5F10105002AECD0D8
:1024800002981199C0E90231C0E9004579E70000DE
:10249000000014400000F03F300000000000F04356
:1024A0000000E03F2DE9FF4F95B09B468946064668
:1024B00000250FE2252877D100242746F84A01217C
:1024C000059400E0044316F8013F203B01FA03F0B5
:1024D0001042F7D130782A2811D06FF02F033078CE
:1024E000A0F13002092A16D8059A44F0020402EB42
:1024F000820203EB42021044761C0590EFE759F884
:10250000042B0592002A03DA504244F4005405904B
:1025100044F00204761C30782E2816D116F8010FEC
:1025200044F004042A280DD06FF02F023078A0F177
:102530003003092B09D807EB870302EB4303C718C5
:10254000761CF3E759F8047B761C30786C280FD0A2
:1025500006DC4C2817D068280DD06A2814D104E076
:10256000742810D07A280FD10DE044F400140AE04A
:1025700044F4801401E044F440147278824202D1A1
:1025800004F58014761C761C307866280BD013DC9A
:10259000582877D009DC002875D04528F6D0462881
:1025A000F4D047281AD19DE118E0632835D064287B
:1025B00079D0652812D195E1702873D008DC67289E
:1025C000F1D069286FD06E280DD06F2806D1B5E004
:1025D00073282CD0752875D0782874D05A4617994E
:1025E00090476D1C75E1C4F30250022809D00328FE
:1025F0000DD0D9F8001004280DD00D6009F10409A0
:1026000067E1D9F80010EA17C1E90052F6E7D9F8F6
:1026100000100D80F2E70D70F0E719F8041B8DF83B
:10262000001000208DF80100EA46012003E059F86F
:1026300004AB4FF0FF3061074FF0000102D40DE012
:1026400008F101018846B9420FDA8045F8DB1AF833
:1026500008100029F4D108E008F101018846814200
:10266000FADB1AF808100029F6D105985B46A0EBB2
:10267000080721463846179A00F094FA284400EBE0
:10268000080507E04DE029E10DE01AF8010B5A4674
:1026900017999047B8F10108F7D25B4621463846B2
:1026A000179A13E142E00A220092C4F302524FF05B
:1026B000000A022A08D059F804CB032A4FEAEC7129
:1026C0000AD00DE029E02AE009F1070121F0070214
:1026D000F2E802C1914609E00FFA8CFC4FEAEC7176
:1026E000042A03D14FFA8CFC4FEAEC71002907DA77
:1026F0000A460021DCF1000C61EB02012D2202E010
:10270000220504D52B228DF80420012203E0E207E4
:1027100001D02022F7E7904659E00A2102E010227A
:102720000DE010214FF0000A00910BE010224FF055
:10273000000A44F004040827009203E008224FF046
:10274000000A0092C4F30252022A05D059F804CBC1
:102750000021032A08D009E009F1070121F007024E
:10276000F2E802C1914605E01FFA8CFC042A01D16F
:102770000CF0FF0C4FF00008220728D5702806D077
:10278000009B83F0100353EA0A0305D00EE04022B9
:102790008DF80420012208E05CEA010206D0302214
:1027A0008DF804208DF8050002229046009B83F0EE
:1027B000080353EA0A030AD15CEA010201D1620765
:1027C00005D530228DF804204FF001087F1E5828CF
:1027D00004D034A003900EA802900DE036A0F9E7D3
:1027E00053466046009AFDF732FD84460398825CAA
:1027F0000298401E029002705CEA0100F0D102983B
:1028000006A9081A00F1200A600702D524F48034D2
:1028100000E00127574502DDA7EB0A0000E0002099
:1028200000EB0A01009005984144401A0590E0032E
:1028300006D45B462146179A059800F0B3F9054483
:10284000002706E001A85A46C05D179990476D1C05
:102850007F1C4745F6DBE0030CD55B462146179A03
:10286000059800F09FF9054404E030205A46179976
:1028700090476D1C0099481E00900029F5DC08E087
:10288000029802995A460078491C0291179990477C
:102890006D1CBAF10001AAF1010AF1DC65E100004A
:1028A0000928010030313233343536373839616226
:1028B00063646566000000003031323334353637EA
:1028C00038394142434445460000000000F058F9C1
:1028D0000544761C307800287FF4ECAD19B028460A
:1028E000BDE8F08F620700D4062709F1070222F045
:1028F000070CFCE80223E14603F000485FEA080CFD
:1029000002D00FF2702C0DE05FEA045C02D50FF2EA
:10291000682C07E05FEAC47C02D00FF2602C01E073
:10292000AFF2700C4FF0FF3823F00043CDF850C0E9
:1029300065280CD006DC452809D046281DD047283C
:102940003DD13DE0662818D067287ED138E00021CF
:10295000112F01DB112000E0781CCDE9000106A950
:102960000EA8FFF7DDFCDDE90F010E9A03910021AF
:10297000009207F1010A04914DE04FF000400097EA
:10298000CDE9011006A90EA8FFF7CAFCDDE90F0288
:1029900003920E9B11990022DDF80CA00093049283
:1029A00011B9791C00EB010AB7EB0A0004D4C0F19D
:1029B000FF3007F1010A0490AAEB0700019044E000
:1029C000012F00DA01270021112F01DD112000E085
:1029D0003846CDE9000106A90EA8FFF7A1FCDDE904
:1029E0000F010E9A0391002104910092BA4621072B
:1029F0000CD40399514500DA8A46BAF1010F05DD7E
:102A0000009AAAF10101515C302908D0B84202DADB
:102A100010F1040F06DA0121CDE9011015E0AAF149
:102A20000101E9E7002805DC049901440491AAEBBF
:102A3000000102E0411C514500DD8A460499401A1C
:102A4000401C01904FF000400290200704D40198F0
:102A5000504501DBCDF8048000208DF84F0002982E
:102A60000DF14F07B0F1004F25D02B200E900298AA
:102A70004FF0020800280CDA404202902D200E9000
:102A800007E00A210298FDF7CCFB3031029007F8ED
:102A9000011DB8F10001A8F10108F2DC029800283C
:102AA000EFD1791E0E980870307800F0200040F0C9
:102AB000450007F8020D12A8C01B00F10708149882
:102AC000007800B1012000EB0A01019801EBE071F0
:102AD00005984144401A401E0590E00306D45B4629
:102AE0002146179A059800F05DF80544149800787F
:102AF00018B15A46179990476D1CE00324D55B46E0
:102B00002146179A059800F04DF805441CE00498FA
:102B1000002807DBDDE90301884203DD0098405C03
:102B2000179901E0179930205A469047049805F10B
:102B30000105401C04900198401E019004D12E20F4
:102B40005A46179990476D1CBAF10001AAF1010A83
:102B5000DDDC05E017F8010B5A46179990476D1C0C
:102B6000B8F10001A8F10108F4DC5B462146179A90
:102B70000598ABE62D0000002B00000020000000AF
:102B80002DE9F041044600251E461746880404D46A
:102B900005E039462020B0476D1C641EF9D5284653
:102BA000BDE8F0812DE9F041044600251E4690461F
:102BB000C80301D5302700E02027880404D505E0AC
:102BC00041463846B0476D1C641EF9D52846BDE81D
:102BD000F0810A68531C0B6010707047FEF784F98F
:102BE000FFF7E5F9FFF720F8FEF7F6FFFFF7A0F88B
:102BF000FFF77EF8FFF7BAF8FFF706F9FCE70102E6
:102C000002030405060708090A0B0C0D0E0F10102D
:102C1000000000000000000001020304060708098C
:102C20000000000001020304482C000800000020FE
:102C30002800000000230008702C00082800002055
:102C4000E004000010230008010000001000000054
:102C50000000000000127A000000000000010000E7
:102C60000000000000000000000000000000000064
:04000005080000ED02
:00000001FF
